:100000000C9446000C9465000C9465000C946500FB
:100010000C9465000C9465000C9465000C946500CC
:100020000C9465000C9465000C9465000C946500BC
:100030000C9465000C940C010C9465000C94650004
:100040000C9465000C9465000C9465000C9465009C
:100050000C9465000C9465000C9465000C9465008C
:100060000C9465000C9465000C9465000C9465007C
:100070000C9465000C9465000C9465000C9465006C
:100080000C9465000C9465000C94650011241FBE4F
:10009000CFEFD0E4DEBFCDBF11E0A0E0B1E0EAEAEF
:1000A000F5E000E00BBF02C007900D92A231B1074E
:1000B000D9F721E0A2E1B1E001C01D92AD31B20754
:1000C000E1F70E944F020C94D3020C940000CF93EE
:1000D000DF9300D01F92CDB7DEB789837B836A831D
:1000E00089818A3031F48A819B81BC018DE00E9434
:1000F000670080EC90E0FC018081882F90E08072A6
:100100009927892BB1F386EC90E02981FC012083AB
:1001100080E090E00F900F900F90DF91CF910895C5
:10012000CF93DF9300D000D0CDB7DEB769837A8359
:100130008B839C8389819A81AB81BC8180930E01E2
:1001400090930F01A0931001B093110180910E01C3
:1001500090910F01A0911001B091110180931301B2
:1001600090931401A0931501B093160100000F9015
:100170000F900F900F90DF91CF910895CF93DF9361
:10018000CDB7DEB781E890E02BE0FC01208388E862
:1001900090E02DE730E0FC01318320838FE690E092
:1001A00022E0FC01208384E890E0FC0111821082AF
:1001B00080910E0190910F01A0911001B091110159
:1001C0008093130190931401A0931501B09316012D
:1001D0008FE590E02FE530E0F90120812068FC01F7
:1001E00020830000DF91CF910895CF93DF93CDB7A7
:1001F000DEB781E890E0FC0110820000DF91CF9132
:100200000895CF93DF93CDB7DEB781E080931201DD
:100210000000DF91CF9108951F920F9200905F0030
:100220000F92112400905B000F922F933F934F93F6
:100230005F936F937F938F939F93AF93BF93EF934E
:10024000FF93CF93DF93CDB7DEB7809113019091E9
:100250001401A0911501B09116010197A109B109EE
:100260008093130190931401A0931501B09316018C
:100270008091130190911401A0911501B091160184
:10028000892B8A2B8B2B91F40E94010180910E0106
:1002900090910F01A0911001B09111018093130171
:1002A00090931401A0931501B09316010000DF9103
:1002B000CF91FF91EF91BF91AF919F918F917F91DE
:1002C0006F915F914F913F912F910F9000925B0042
:1002D0000F9000925F000F901F901895CF93DF93BF
:1002E000CDB7DEB78091170190911801823091054A
:1002F000B1F18330910528F4009779F00197C1F0AE
:100300008BC08430910509F45FC08430910508F4F6
:1003100044C0059709F46CC07FC010921A01109276
:100320001B0181E090E090931801809317017BC03E
:1003300081E080931A0180911B01882349F084E0B9
:1003400090E0909318018093170110921B016BC0ED
:1003500082E090E0909318018093170164C082E0DE
:1003600080931A0180911B01882349F084E090E07A
:10037000909318018093170110921B0154C0809133
:100380001901882319F483E090E002C081E090E035
:10039000909318018093170146C084E080931A015E
:1003A00080911B01882349F084E090E0909318012C
:1003B0008093170110921B0136C082E090E0909369
:1003C0001801809317012FC080911B01882349F0E9
:1003D00084E090E0909318018093170110921B0124
:1003E00022C085E090E090931801809317011BC014
:1003F00080911B01882349F081E090E090931801DF
:100400008093170110921B010EC085E090E090933D
:1004100018018093170107C081E090E090931801C4
:10042000809317010000809117019091180182308C
:100430009105C1F08330910528F40097A9F0019748
:1004400051F017C08430910589F08430910530F067
:10045000059771F00EC0109219010BC081E08093D6
:10046000190107C0000005C0000003C0000001C062
:1004700000000000DF91CF910895CF93DF93CDB7B7
:10048000DEB780911C01882319F480911B0101C003
:1004900081E080931B010000DF91CF910895CF93FD
:1004A000DF93CDB7DEB728970FB6F894DEBF0FBE47
:1004B000CDBF81E290E0FC01108282E290E02FEF5C
:1004C000FC01208384E290E02FEFFC01208385E291
:1004D00090E0FC01108219821A821B821C8283E048
:1004E00090E0A0E0B0E08D839E83AF83B8878D81DC
:1004F0009E81AF81B885BC01CD010E9490000E9411
:10050000BE0010921A01109218011092170180E299
:1005100090E0FC018081882F90E08170992721E094
:10052000892B09F020E0822F80931C010E943D025C
:1005300089819A81AB81BC818C329140A105B10542
:10054000D0F085E290E020911B01222F30E0220FB5
:10055000331F22953295307F3227207F3227322F6A
:1005600020911A01232BFC0120830E946E01198225
:100570001A821B821C820000809112018823E1F301
:100580001092120129813A814B815C818D819E817B
:10059000AF81B885820F931FA41FB51F89839A83EB
:0A05A000AB83BC83B4CFF894FFCF07
:1005AA0000000002000000006700000000000100D7
:0205BA0000003F
:00000001FF
